:1000000000800020F13F0000ED3F0000ED3F0000C8
:1000100000000000000000000000000000000000E0
:10002000000000000000000000000000ED3F0000A4
:100030000000000000000000EB000000654300002D
:10004000ED3F0000ED3F0000ED3F0000ED3F000000
:10005000ED3F0000ED3F0000714300007D430000D4
:10006000ED3F0000ED3F0000ED3F0000ED3F0000E0
:10007000ED3F0000ED3F0000ED3F0000ED3F0000D0
:10008000ED3F0000ED3F0000ED3F0000ED3F0000C0
:10009000ED3F0000ED3F0000ED3F0000ED3F0000B0
:1000A000ED3F0000ED3F000045490868454A104318
:1000B000086045490120087044490A6810681030FA
:1000C000F0C8A046A946B246BB462038F0C810305A
:1000D00080F30988BFF36F8F04217046084386467A
:1000E0003B493C48086062B6FEE772B6374B196878
:1000F000394A126891421CD0EFF309802038086019
:10010000F0C044464D4656465F46F0C01A6010683F
:100110001030F0C8A046A946B246BB462038F0C809
:10012000103080F30988BFF36F8F042170460843B5
:10013000864662B6704725490A6811462748006816
:1001400080F30988042170460843864610462449F6
:100150008847EFF30880203080F30888002080F380
:100160001488BFF34F8FBFF36F8F19491948086088
:1001700062B6FEE7164917480860704714491548EB
:1001800008607047EFF3108072B6704780F31088F4
:100190007047EFF3108070477047704770477047A3
:1001A00072B6704762B67047EFF30580800601D0E3
:1001B000012070470020704701380028FCD17047AB
:1001C00020ED00E00000C00028060020CC00002048
:1001D00004ED00E000000010B80400200000002042
:1001E000450C000080235B0470B50B600C0016000A
:1001F0000125FFF7D2FF231F284318601948FFF796
:10020000CDFF23000543184A083B1D60043B1A60DC
:10021000164A043B1A60164A043B1A60154A043B0E
:1002200030001A60FFF7BBFF23001C3B1860200062
:10023000114A043B1A60114A043B1A60104A043BFD
:100240001A60104A043B1A600F4A043B1A600F4AB6
:10025000043B1A600E4A043B1A600E4B3C380360A4
:1002600070BDC046150F00001212121203030303E3
:1002700002020202010101011111111110101010EE
:1002800009090909080808080707070706060606F6
:1002900005050505040404047047FFFF10B50400BC
:1002A000034B1B68002B00D1FEE720009847F7E7BF
:1002B00034030020F0B5294887B00592002400F0EF
:1002C00079FE2748E300C018013400F073FE082CC3
:1002D000F7D100250024234BE800C01800F06AFE87
:1002E000214B6A000135D452202DF3D11F4800F074
:1002F00061FE1F4B1F4E1C601F4B204F1C60204B8C
:1003000020481C60204B21001C60204B01221C60F7
:1003100034603C60046100F05FFB40231C4D1F22F1
:10032000EC6302932033019400932800194B1A497F
:1003300000F06AFD041E0DD105991848FFF7ACFFC7
:100340003D60356003F0A0F9041E03D104F009F804
:10035000FFF7AAFE200007B0F0BDC046BC04002095
:10036000C4040020040500202C060020C00000204A
:10037000C8000020B804002028060020CC0000207F
:10038000040600201406002010060020D0020020E1
:10039000D4020020B40400209D02000008060020C2
:1003A0001C4B70B51B68012B1AD1FFF7FDFE01280D
:1003B00016D1FFF7E7FE184A0500136801331360F2
:1003C000164B174A1B685C6B6100895A002904D0E0
:1003D0001A6D01328A4207DA1A652800FFF7D6FE45
:1003E000104800F03DFB70BD00221A650E4BE40082
:1003F000E418200000F0E1FD0028EED163685B689E
:10040000A342EAD0200000F001FE0100200000F02D
:10041000F7FDE2E72806002010060020CC000020AF
:100420002C06002014060020040500200300F7B568
:10043000072900D881E0002800D17EE008394C6807
:1004400067183A00083A0092620700D075E00E681B
:10045000002E00D071E082688A4200D96DE0C26847
:100460000098824269D31A689446101E05D15A68D2
:10047000196014195C60FEBD02005568A81801904F
:1004800091421CD20098904257D258682018586068
:1004900097420DD1002E07D16246126819600A609A
:1004A00064194C600020E6E7336831600B60F7E7C1
:1004B000002E02D119600A60F4E73160FBE7914237
:1004C0003BD01068002828D016008142D4D2009E6C
:1004D000864232D25E68A619874214D138685E60BF
:1004E00084460198884207D1651955607B685D197B
:1004F000634655601360D5E77B681160E418634676
:100500004C600B60CEE7019F5E608F4202D16419A0
:100510005460C7E711600860C4E7AE18083EB142F6
:100520000BD95E68AF18A6195E608F4202D16419BC
:100530005460A0E7116008609DE7012040429AE7FF
:100540000723073199430B00F0B508332AD0002860
:1005500019D0002403680831002B13D05E681D6891
:10056000B1421CD84268771A0F2F0FD9CE183560C8
:100570007760002C08D106605960511A4160002252
:100580001A6008331800F0BD2660F5E7002C04D18E
:100590000560921B5E604260F1E72560F9E71C0090
:1005A0002B00D9E70020EEE710B5002819D000296C
:1005B00017D02F2A15D90724CB1DA343521A19008F
:1005C000D218A24308398918C160002183600360F2
:1005D00006C34260012201621100103000F0FCF9F4
:1005E00010BD05204042FBE7F8B504000E00051ED3
:1005F00016D00D1E14D00B4F3B68012B04D10121E6
:100600001030494200F070FA31002000FFF798FFE7
:100610003B680500012B03D12000103000F020FAC8
:100620002800F8BD2806002070B504000D00002841
:1006300018D0002916D00D4E3368012B04D10121AA
:100640001030494200F050FA29002000FFF7EEFE7A
:1006500033680500012B03D12000103000F000FAB0
:10066000280070BD05256D42FAE7C0462806002027
:10067000F7B5040016001F000091002802D10520E4
:10068000404235E08023009A5B029A42F7D2FFF79E
:100690008BFD012837D0002EF1D0009B002BEED02F
:1006A000072FECD9E56A002D2FD1F3192700200080
:1006B000A6620837019300F0B9FC380000F0B6FCE0
:1006C000019BB34215D8002D01D16562D7E7013DEA
:1006D0006562002DD3D02000103000F06BFC2000AC
:1006E000183000F067FC0020636A2362084BE36265
:1006F000FEBD3100380000F0A4FC009B0135083637
:10070000AB42DDDCE4E70220BAE70820B8E7C046E8
:10071000896C8A0C70B50C0015001E0000F08AFC74
:1007200000280FD1059B002B0AD0002C0AD01A00FC
:1007300030000B24049900F0ABFA6442200070BD35
:10074000002CFBD100242860F8E770B504000D00F0
:1007500000F033FC002802D00820404270BD200089
:1007600000F054FC041EF7D00428F5D0280000F057
:1007700061FC031EF0D0201FC36500F0C0FA012801
:10078000EAD10C38EAE7FFFFF0B505000E001400CF
:1007900085B0002800D17BE0002900D178E0C36A51
:1007A0003F4A1B011B09934200D074E0FFF7FCFC99
:1007B00001282DD1002C00D06FE0FFF7E3FC0700EB
:1007C000280000F037FC00281FD003903800FFF706
:1007D000DDFC002C16D1039B2F005B6808373360CB
:1007E000FFF7D0FC03990600380000F02AFC28002F
:1007F0002B6A390001332B621830FFF7A6FF300057
:10080000FFF7C4FC200005B0F0BD06246442DDE71C
:10081000FFF7B8FC0823062100932B0007001033D4
:10082000019403AA49422800FFF774FF040038002E
:10083000FFF7ACFC23000B3327D1FFF79BFC194BD0
:100840001B689C6C22000C321FD10024DB6D0393CB
:10085000039B2F005B6808373360FFF793FC039915
:100860000600380000F0EDFB28002B6A3900013348
:100870002B621830FFF769FF05003000FFF786FC98
:100880000B35BFD1FFF776FCBCE7002CE0DAB9E707
:1008900005246442B6E70924FBE70224F9E7C046D1
:1008A000896C8A0CCC000020F0B587B005000F00E1
:1008B00014000393002800D181E0C36A444A1B015D
:1008C0001B09934200D07DE0FFF76EFC012831D177
:1008D000002C00D078E0FFF755FC06002800083017
:1008E00000F0A8FB00281FD02B6A0590013B2B626B
:1008F0003000FFF74BFC002C68D1059B5F60FFF7D1
:1009000041FC039B060005992800012B0FD100F044
:10091000A3FB280029001030FFF717FF3000FFF776
:1009200035FC200007B0F0BD01246442E0E700F090
:1009300088FBEEE7FFF726FC102306000093012159
:100940002B0028000194183305AA49420830FFF70C
:10095000E1FE041E02D12B6A013B2B623000FFF73F
:1009600015FC23000B3324D1FFF704FC194B1B6843
:100970009C6C22000C321CD10024DB6D0593059B7E
:100980005F60FFF7FFFB039B060005992800012B22
:1009900012D100F061FB280029001030FFF7D5FECE
:1009A00005003000FFF7F2FB0B35BAD1FFF7E2FB91
:1009B000B7E7002CE3DAB4E700F043FBEBE70524EC
:1009C0006442AEE70924FBE70224F9E70124F7E7D4
:1009D000896C8A0CCC000020F8B505000F001600C9
:1009E000002813D0002A11D08A420FD30469002CAA
:1009F0000CD1FFF7D9FB01280BD0280000F0DAFA60
:100A00002000054BAF60EE602B61F8BD0520404231
:100A1000FBE70220FBE7C046EB73A10F70B50500B2
:100A200000F0CBFA041E0FD1280000F0EFFA0028E6
:100A300011D004280FD0043800F061F9093C0128D6
:100A400009D10B24644206E0AB68EA68934204D201
:100A500000240133AB60200070BD0124F2E7FFFFEA
:100A600070B5041E26D00369154A1B011B09934269
:100A700023D1FFF799FB01280BD1FFF783FB05007A
:100A80002000FFF7CBFF04002800FFF77FFB2000CA
:100A900070BDFFF777FB05002000FFF7BFFF0400E4
:100AA0002800FFF773FB23000B33F0D1FFF762FB45
:100AB0000024ECE705246442E9E70924FBE7C0468B
:100AC000EB73A10F836810B5002B08D0013B836046
:100AD000002010BD00F0DCF80B204042F9E7002AAE
:100AE000F8D10620F9E7FFFF70B506000C000028DA
:100AF00032D003691C4A1B011B0993422FD1FFF717
:100B000053FB01280FD1002C2BD1FFF73BFBB3681F
:100B1000002B05D0013BB360FFF738FB200070BD10
:100B200006246442F8E7FFF72DFB220005000221AE
:100B30003000FFF7C7FF04002800FFF727FB230062
:100B40000B33EBD1FFF716FB084B1B689C6C2300A3
:100B50000C33E3D10024E1E705246442DEE70924F5
:100B6000FBE70224F9E7C046EB73A10FCC0000209D
:100B70000122002310B50A4C1000216808400A42E7
:100B800004D101335200202BF6D10300054ADB00CB
:100B9000D3185B68002B00D0043B034A136010BDE0
:100BA0000406002004050020B80400200123026C84
:100BB00070B59A43466B02640400043000F032FAC8
:100BC0000C4BF500ED18280000F0F7F9012807D1CB
:100BD000B040094A136883431360FFF7C9FF70BD33
:100BE000064A1368A342FAD16B68002B00D0043B7D
:100BF0001360F4E70405002004060020B804002078
:100C000070B501250023466B0564B54043610A4B6E
:100C1000011D0400F000C01800F0F2F9074B1A683B
:100C200015431D60064B1A68002A03D0526BB2426E
:100C300000D91C6070BDC0460405002004060020D9
:100C4000B80400207047FFFF4A1E0B0010B50332A6
:100C500015D8010007240B4A0C311268A34209D8A9
:100C60009B182340C364D800074BC01800F0C8F994
:100C7000002010BD2240D318C3640448F6E70520C5
:100C80004042F6E710060020C4040020BC04002007
:100C9000F8B5104E050030680F001400FFF786FF0E
:100CA000042233681A645F64DC649918002D0AD149
:100CB000080000F07FF9631E033303D82100306879
:100CC000FFF7C2FFF8BD5A6B280000F080F93368C7
:100CD0005D61F0E7CC00002070B505000C35040024
:100CE000280000F06AF9002808D101235B4228009F
:100CF000E36400F097F9280000F05CF970BD0C2364
:100D000070B500255B42040083644561FFF7E4FF92
:100D10000823226C1A4205D12000FFF771FF012041
:100D2000656470BD28002364FAE710B50400043040
:100D300000F040F92000FFF7CFFFA26B00236263B1
:100D400010222264113A63616364A364E365E26480
:100D5000236510BD0722F0B5284F85B03B681A40C7
:100D60000192FFF70FFA019B0290002B10D0002593
:100D7000019B234FDE00F3190193019800F01DF948
:100D8000002824D00298FFF701FA280005B0F0BD32
:100D90001C4E7468B442EAD0636803930C2C14D0E0
:100DA0002500236C0C3D083B2364072B0DD8200045
:100DB00000F038F9EB6C38682100C01807231840A0
:100DC0000F4BC000C01800F01BF9039CE2E7BB19F1
:100DD0005C68002CD1D00C2CCFD025000C3D280015
:100DE000FFF77AFF2000083800F01CF92800FFF711
:100DF00086FF04235B42AB640125BEE7100600209A
:100E0000C4040020BC040020F0B585B00400151E09
:100E10000391019305D10C9B1B0607D40524644262
:100E200060E01F2A61D10C9B5B06F7D50A9B3F2B24
:100E3000F4D9039B002BF1D0002CEFD0019B002BA9
:100E4000ECD0E76B002FE9D1C9230C9A1A42E5D008
:100E5000FFF7AAF9012850D0294E02973368012BD9
:100E600002D1FFF78FF90290039B264AA3620B9BE6
:100E70002563E362019B656323620A9BA56363624A
:100E8000214BE363BB0001995B42CA50636A01379F
:100E9000BB42F7D825001835280000F08BF8200059
:100EA0000C3000F087F82000FFF73FFFE26A216A6C
:100EB000A06AFFF797F929002060144800F0A0F815
:100EC000134A136801331360C1230C9A1A420FD0DE
:100ED0002000FFF795FE33680024012B02D1029811
:100EE000FFF754F9200005B0F0BD1F2A9ED995E701
:100EF0000823226C13432364EDE702248FE7C046E6
:100F000028060020EFBEADDE69CFAB07C000002091
:100F1000C8000020134B70B51C68FFF745F9051E8B
:100F20001ED1114B1B68012B1AD1FFF72BF92000A2
:100F3000FFF73CFE2000FFF7F8FE2000183000F01D
:100F400071F80A4A1368013B1360A022E36BD205D3
:100F50001340934200D02B002000E363FFF7EBF82F
:100F600070BDC046CC00002028060020C80000202C
:100F700070B5041E16D0FFF717F9012815D00C4BD9
:100F80001E68012E11D1FFF7FDF805002200310087
:100F90000020FFF77DFE2800FFF7F8F8FFF7EAF8DA
:100FA000002070BD05204042FBE70220FBE7C04661
:100FB000280600204060006070474268030000205F
:100FC0009A4203D11368981A43425841704710B5AA
:100FD0004368834205D11A684B600A60516019600A
:100FE00010BD002B04D0042B02D01C6B944201D8FE
:100FF0005B68EEE71A6851600A6019604B60EFE7C2
:10100000036848600B60596001607047002806D093
:101010004368834204D05A681060426018007047E9
:101020000020FCE70CC853601A607047002303607F
:101030004360704703000068002801D002681A600E
:10104000704700230B600368002B02D101604160F0
:10105000704743681960FAE703680B60002B00D102
:10106000416001607047FFFFF7B516000A7807007E
:1010700053060C009B0F012B55D1637909791B0294
:101080000B432B490878984202D0497899424AD1BB
:10109000E579A3792D0252B21D43002A0EDA002011
:1010A000012E0AD06378212B10D1072D3ED10300E9
:1010B0002A002049380000F0E3F9FEBD00F0C4FB2F
:1010C00063780100202B03D0222B1CD00D202BE0B5
:1010D000072D2BD1002E02D133002A00EAE72A0087
:1010E000684603F009FB144B1B68002B06D107224E
:1010F0006946104803F000FB0020DEE76846984789
:101100000028F4D1F8E700231A001900180000F0B5
:10111000B7F90A4B1B68002BEED0E078A2780002EA
:1011200010439847E8E70A204042C6E70120FBE762
:101130007806002088060020840600208006002013
:10114000F7B5150001294FD0022900D176E000291A
:1011500000D075E0836810681E000093023301938D
:10116000002802D10A20404220E0082143798278F9
:101170008B43022BF6D133789A4263D0FF2B63D195
:1011800032706968052201F0CDFC041E0FD1286879
:10119000042203786968C01801F0C4FC019B013681
:1011A000B342DDD101222000294B5A71FEBD637983
:1011B0002279A7781B02D2183800E17892B200F0A9
:1011C0007FFC002842D17BB2002B0ADAB7703800CE
:1011D00000F0B4FC2C6020786968201801F0AFFCA6
:1011E000D3E7009B1F71F2E78468002A05D01368DB
:1011F00008225B799343022BB4D12378FF2B07D0CD
:10120000FF25A0782570A84202D000F085FCA570CB
:101210006378FF2B07D0FF25E0786570A84202D0E5
:1012200000F07AFCE5702079FF2803D000F074FC10
:10123000FF2323710020064B5871B7E71B2092E76C
:101240000D2090E712208EE71C208CE714208AE7FF
:101250007806002010B500F0FDFA01280CD80848E7
:10126000084B4360084B836000F0C8FA012007492F
:1012700000F092FA002010BD11204042FBE7C0466A
:101280006C060020411100007806002004000020B8
:1012900010B5074B0A0059790400002905D01879C8
:1012A0002100002300F0ECF810BD11204042FBE7C4
:1012B0007806002010B5074B0A0059790400002970
:1012C00005D0D8782100012300F0DAF810BD1120F4
:1012D0004042FBE7780600200A0010B5032812D828
:1012E00003F05CF802090C0F084B1879022100F09A
:1012F000E1FC002010BD054BD878F7E7044B1A60DD
:10130000F7E7044BFBE70D204042F3E778060020A7
:101310008406002080060020014B58797047C046A3
:1013200078060020064B10B51C69002C00D110BDBA
:10133000200063680022012198472468F5E7C04631
:101340009006002070B505000E00064BDC68002CEE
:1013500000D170BD6368002B02D03100280098478F
:101360002468F4E790060020F8B505000E00170089
:101370000B4B9C68002C01D12000F8BD6368002B4A
:1013800001D12468F6E73A00310028009847002888
:1013900004D00A30F5D001204042EEE70120ECE70E
:1013A00090060020054B10B55C68002C00D110BDE4
:1013B0006368002B00D098472468F6E79006002069
:1013C00010B51400002903D0012923D0002010BD3E
:1013D0001378002BFAD15378052B0FD0092BF5D1B8
:1013E000E17892780E4B09021143D9764A1E914159
:1013F000033101209976FFF7A5FFE7E7907800F029
:101400005BFBE178A278090211434B1E9941044B22
:101410000231EEE70A0000202100FFF7A5FFD5E723
:101420009006002070B500240226FFF77BFF0B4DCD
:1014300020006E836C7700F06FFB287F00F064FB68
:1014400021002000064A00F035FC31002000054A4A
:1014500000F030FC200000F071FB70BD9006002011
:1014600099140000C113000010B5002802D0012813
:1014700003D010BDFFF766FFFBE7FFF7D3FFF8E7E8
:101480001FB502926A46107301A80191537300F0D0
:1014900071FB05B000BDFFFFF7B5002204000D0091
:1014A000FFF762FF030000205A1C00D1C1E00130A9
:1014B000834200D1BDE02B781F221900914304D054
:1014C000802900D1B6E00020B3E0687801380A280E
:1014D000F9D802F059FF46F856F80BF8F8F806F874
:1014E0006000AA78002A0BD1FFF71CFF002201231D
:1014F00011002000FFF7C4FF43425841C0B298E0FA
:10150000A44D2B6803CB01F028FB002800D190E00C
:10151000C37881781B02C91889B20422411801914D
:1015200001F000FBFF220090009B002BDED09E7894
:10153000964202D02F69002F0AD100980422037826
:101540000199C018009001F0EDFA32000090EBE72D
:101550006A46002138007B6898470028EDD03F6834
:10156000E9E7022BAFD1EE79AB7936021E43AAD15F
:101570003100287900F070FB012332003100200097
:1015800054E0022B9FD1EE79AB7936021E439AD1FB
:1015900001212879EEE7EC78AB7824021C432B7903
:1015A0006D797C4E2D021D433368F27E03CB01F032
:1015B000D4FA002887D004220090C37881781B02D7
:1015C000C91889B24118019101F0ACFA002800D184
:1015D00079E78378AB4210D1C378A3420DD1376944
:1015E0000090002F00D16EE701216A4638007B6829
:1015F0009847011E08D03F68F3E70098042203785B
:101600000199C0180090DFE76A4638007B68984768
:10161000002800D057E7002C04D00122AA40737F95
:101620001343737700231A0019001800FFF728FFEF
:101630000120FEBD68780A2800D944E702F0B8FE10
:10164000620043FF43FF43FF43FF43FF0B0043FFA1
:101650005A0043FF8300E978AB7809020B43090A7B
:10166000CAB2022917D0032A34D00020012AE0D1BF
:10167000AB79ED792D021D43464B1B6803CB01F07E
:1016800051FA011E00D11EE72A1C122D00D9122288
:10169000002392B22DE7AA79ED7901332D0215438B
:1016A0003C4A1068167F03C8DAB201F056FA011EF0
:1016B00000D108E7C37882781B02D21892B20023C7
:1016C000954205D9013E35406B425D41EBB21500B4
:1016D0002A000EE7AA79ED792D0215432D4A1068EC
:1016E000167F03C8DAB201F054FA011E00D1EAE60F
:1016F0000278E4E72749CB7E4A69137049690023E1
:1017000001223CE71F211E221800194010401342FD
:101710000ED0022900D0D6E6287900F09DFA030009
:101720000020834200DA84E701300340009300E0A8
:101730000090184D02226946686902F0DDFF00231F
:10174000022269691BE7134E6B792979727F1B02AC
:101750000B431A4101241000204022420CD034696E
:10176000002C00D1AFE62A000221200063689847D0
:10177000002807DA2468F3E773692200187071699A
:10178000030053E773690122187000237169180080
:101790004CE7C0469006002010B5012808D002286A
:1017A00009D0002803D10548043000F0A7FA10BD85
:1017B00002480830F9E701480C30F6E790060020AF
:1017C00070B5040000F03CF900280FDB084D202222
:1017D0000021280002F0E2FF002006496C6100F0C1
:1017E0005FF90120044900F05BF9002070BDC0469C
:1017F00090060020A51300006914000010B5010038
:101800000248103000F07AFA10BDC0469006002061
:1018100010B50A4B9C7E002C0BD100280CD002681E
:101820001860D2791A7701229A7600F03DF92000EB
:1018300010BD04204042FBE70920FBE79006002092
:1018400010B500F035F910BD014B58697047C0461E
:1018500090060020034B987E1023184200D01800F9
:101860007047C04690060020EFF31083036072B605
:10187000BFF35F8F7047BFF35F8F036883F31088F8
:101880007047FFFF02000F21002030B5094B1140C7
:101890005C7894420CD01D78002D01D18C4207D089
:1018A0000130C4B2203340B2042CF1D101204042B7
:1018B00030BDC046B00600200020704770B504005F
:1018C0000D00FFF7DFFF064B40011B189A78002040
:1018D000032A03D1290020009B69984770BDC046A8
:1018E000B0060020F0B587B00F0000900192FFF71E
:1018F000C9FF344D4401002F41D12E19F770295DE5
:10190000002933D12200B4780C327078F369AA1818
:10191000032C27D10C270131F75798470300707823
:10192000002B0BD0284B7380002F02DB863BFF3B44
:101930001843012100F0BCFF07B0F0BD042203935F
:10194000B2700493002F0ADB8023184302AB187394
:10195000012302AA03A8537301F036F8ECE70F2322
:101960001840F3E798470223B370E5E70123B3700B
:101970002C19E178E369019A00989847DCE72B1964
:10198000012F0CD10222DA70295D002904D10098C0
:101990009A7000F08DFFEBE705229A70E8E7022FBE
:1019A00008D10422DA702A5D002A01D19F70C3E7B2
:1019B0000122F2E7032F03D1A022D2005A80D7E7F9
:1019C000024AFBE7B0060020050200000606000000
:1019D000F7B50400FFF756FF47013B00174D0C33E6
:1019E0005B1919002000019300F0C4FF8026C0B2EB
:1019F0002643082808D00121200000F059FF0121CA
:101A0000300000F055FFF7BDED190127002120003F
:101A100000F04EFF0021300000F04AFF2000019945
:101A20006B69AF7098470028EDD10523390020007D
:101A3000AB7000F03DFF3900E2E7C046B006002081
:101A400010B500F071FD00281FDB104C8022200033
:101A5000002102F0A3FE2000FF2204240C4B013CD5
:101A6000E4B2427043618361C3612030002CF6D13F
:101A70002000084901F040F80120074901F03CF836
:101A80000220064901F038F8200010BDB006002001
:101A9000B9180000D1190000BD180000E5180000B9
:101AA00010B501F017F810BD10B500F097FD10BD8E
:101AB00010B500F0B7FD10BD10B500F0BBFD10BDB6
:101AC000F8B506000D001700FFF7DCFE002814DA59
:101AD000FF20FFF7D7FE041E12DB3A00290030007A
:101AE00000F0B0FD002807DB03210020054B640156
:101AF0001A190D405670E554F8BD14204042FBE71A
:101B00001520FBE7B0060020002110B502000800F8
:101B1000FFF7D6FF10BDFFFF70B50500FFF7B2FE5F
:101B2000041E07DB280000F0EFFDFF2302486401DC
:101B30000419637070BDC046B006002070B5040083
:101B4000FFF7A0FE00280FDB094D4001425D2D1874
:101B500051424A4101322000AA7000F00DFE0028D7
:101B600001DA0023AB7070BD12204042FBE7C04693
:101B7000B0060020F0B5037A04008BB01800019382
:101B8000FFF780FE637A061E656802935CDB06A899
:101B9000FFF76AFE73010093009A2D4B9E18B378ED
:101BA00004AAD371D379D71DDAB20392012B1ED1C7
:101BB0000233B37006A8FFF75EFE254B009AD35C94
:101BC000002B20D00298019B421E9041D909C0B23F
:101BD0002368227A07930895002932D080231A437C
:101BE00004AB587507A81A7500F0EEFE09E006A8C8
:101BF000FFF741FE3B780120DAB2062B01D8154BE6
:101C000098560BB0F0BDF27CB37C12029B189BB2CD
:101C1000002B05D1042203981D000100B270D7E704
:101C20009D4200D91D000A4900208C46009A0100FF
:101C30006244127B7F2ACBD99D429B41013158429D
:101C4000C6E70F231A40CBE712204042D9E7C0462F
:101C5000B00600204049000070B505000E1E1BD1E3
:101C6000FFF710FE041E1EDB0221280000F020FEFC
:101C7000002810D03100280000F01AFE00280ADBEE
:101C80000A480B4B640124186380320003212800AA
:101C9000E3699847300070BD012900D00221280077
:101CA00000F006FEF7E712204042F4E7B0060020FD
:101CB0000103000070B514000D00FFF7E3FD002CD8
:101CC00000D10C4C002809DB012D08D0022D0BD0CF
:101CD000002D03D1084B40011818446170BD064B1C
:101CE000400118188461F9E7034B40011818C461DA
:101CF000F4E7C046B9180000B00600200368002BC6
:101D000002D101600B6070471A001B68002BFBD1E9
:101D10001160F7E70300100010B5541E2040224266
:101D200004D15C609860D860196010BD0D204042FD
:101D3000FBE78368C2689A4209D042681340026890
:101D4000D35C0B70836801338360002070470A20E6
:101D50004042FBE7C268436813400268D154C3683D
:101D600081684268591A914201D99A1A82600133F6
:101D7000C36000207047C3688068181A704700204D
:101D80007047FFFF074B9A8C920604D51022D96842
:101D90001142FCD004E0D021DA680A40D02AFBD1FD
:101DA0007047C04600080040002803D0002901D039
:101DB0000230C0B2142301305843014BC0187047A1
:101DC000F00700200F2370B50100807C0725034039
:101DD0001A00CC7C083225405B01012D08D0144943
:101DE000520152181021D171124A9B18597270BDBC
:101DF00040252C4206D08026AC43CC740D4C1C19D7
:101E00006671A5710825CC7C5201AC43CC740024CA
:101E10000949C9188C728C76054952186F21D17105
:101E2000044A9B185972054B9B689847DFE7C046E8
:101E300000500041FF500041B8080020F00700208A
:101E400020238B40DAB20F2310B50400807C0549B3
:101E500003405B015B185A72034B01211B69A268A6
:101E6000984710BDFF500041F007002010B5030057
:101E7000807CFF2809D04024DA7C224205D0A2438E
:101E8000DA74024A14699A68A04710BDF00700206E
:101E9000F7B59446837C134A01AE0D003280FF2BC8
:101EA0001AD04027C27C3A4216D00F2213401C00A1
:101EB00008346201002910D00B4FD2198027177106
:101EC0000949640164180949725D5B015B18E2719C
:101ED00061465A72FFF7CAFFF7BD0349521857719E
:101EE000EEE7C046254A000000500041FF50004187
:101EF000F0B50D000F21837C85B00B409C46304B24
:101F000003AE338063465B010093634608332D497B
:101F10005C01002D20D0095D4906490F009A2C0173
:101F2000A418294A765D1419A77AFFB2022917D19D
:101F300001390F4214D0A77A224A5B019B188F43C4
:101F4000009AA772DE71214B2940D21856720422E2
:101F5000FFF79EFF05B0F0BD0C5D07212140DDE7D6
:101F600002213A000A4001920F4217D0A27AC77CA0
:101F70008A43A272134A5B019B18DE71009A134BCD
:101F8000D218072356723B40012BE3D17B06E1D5E3
:101F9000C17CC909A942DDD00022D9E762465100BF
:101FA0004D19094A2D015519019A5B01AA72054A7A
:101FB0009B18DE71009A054BD2185672CAE7C046CC
:101FC0000408000000500041B8080020FF50004104
:101FD00070B5FF26084D094CC83503212000FFF7D6
:101FE00045FF0021A674E1741434AC42F5D160229F
:101FF000034802F0D3FB70BDF00700200408002066
:10200000B80800200F23F0B585B00291867C04004B
:10201000334001930023994206D0019B5A014C4B57
:102020009B185B699B049B0C258A4A4AAC469542E7
:1020300002D06A1E12B294460722E07C024003924C
:10204000029A002A05D0019A4349520152180221EE
:10205000D171A268019F99186268A1607F019142C5
:1020600041D22368521A3A4E92B2591883062ED59D
:102070002B1C954200D9131C9DB22A00E06802F087
:102080003BFB019BE2685901314B5B181A61F61961
:102090007369AD049B0BAA0C9D03154375617369AD
:1020A0002E4A13407361029B002B09D1039B4E22E1
:1020B000012B00D0043A019B29495B015B189A72FD
:1020C000019B254A5B019B1880225A7139E08023CD
:1020D000151C9B019A4200D91D1C019BADB25B01EE
:1020E000F3181961D3E7102210420ED0E37C93431A
:1020F000E374174BDF19BF187B68184A9B0B9B03CF
:102100007B607B6813407B60CDE7039A012A1AD17C
:10211000134ABF184B227A72624613409D420CD17B
:102120004025E37C3000AB43E3740E4BDB689847FB
:10213000002806D1E37C2B43E37400212000FFF745
:1021400095FE05B0F0BD064ABF184A22E3E7C04637
:10215000B8080020FF03000000510041FF3F00F0DD
:10216000FF500041F00700200F23F0B5857C85B0BB
:1021700004000E001D400391019100290AD0614B1B
:102180006A019B18596809018A0C039259688904ED
:102190008B0C0193238A0093009A5B4B9A4203D0E5
:1021A0001300013B9BB20093019B009FE27C1F4008
:1021B000072313400293002E04D054496B015B188F
:1021C0000121D97193060FD56368002B0CD0A2684A
:1021D00021689B1A88181A1C9BB2BB4200D93A1C72
:1021E000E16892B202F088FA63686A019446002BB3
:1021F0002CD1E27CD10629D530339A43103B1A43C7
:10220000E2746246E1683F4B41489950218A634439
:102210005A688904090902400A435A605A68920BB5
:1022200092035A60002E0BD1029925226B010129DD
:1022300003D1344AD21896762D2236495B189A7209
:10224000324B6D01ED1840232B711DE0A168002E6B
:102250001CD0228ABA4219D91022E37C9343E3743A
:10226000019B5918A160029A6B01012A46D1294AA3
:102270009B182D225A72002D02D1224BE2681A605F
:1022800000212000FFF7F2FD05B0F0BD039A5118C0
:10229000A1608B42E7D92020E27C5B1A278A9BB29F
:1022A000024216D0391C9F4200D9191CE068154A19
:1022B0008BB269015050134A1548624451689B041F
:1022C0001B0901400B43536053689B0B9B035360F6
:1022D000A8E79F420BD28020800183420CD8009A4D
:1022E00093432068074A411868011150E3E79F4271
:1022F000F7D91043E074F4E70300F2E7054A9B18AE
:102300002522B7E7B8080020FF0300000051004174
:10231000FF3F00F0FF500041802302009B00072098
:102320009A4214D8013BFF3B01389A420FD801383A
:10233000802A0CD80138402A09D80138202A06D82A
:102340000138102A03D8063090428041404270473D
:10235000F7B56E4B1A8C91B20191002A00D066E05D
:102360009A8B198B04200A4011000140024204D0CC
:102370009883674B1B689847F7BD80241600A4001C
:10238000264022421DD0634A9A839A82923AFF3AAB
:102390001A83614B1A891207120F032A05D01A8D6E
:1023A0001207120F032A07D10121002249015B18ED
:1023B00019891A814904490D0320554B5B689847D8
:1023C000DAE7802415002540224205D09C83504B3B
:1023D000310005205B68F2E7702614003440324279
:1023E0000AD04C4A9E839E821A83FFF7CBFC484B4F
:1023F000290002205B68E2E70825110029402A42F3
:102400000CD0464A5470434A9D839E821A83FFF73C
:10241000DFFD3F4B210001205B68D0E7D20706D5E6
:102420003C4A9A839A821E83394B5B68C7E7002631
:102430000F2701253A4CA37CFF2B3DD02A003B40BF
:102440009A400199114237D036495A0152183349FE
:102450005B015B181278997A0B00134011422BD064
:10246000142171432A4A521847211032D27D11405B
:10247000012912D1DA0603D52000FFF7A3FC1BE0E7
:10248000402219001140134201D0290001E09B06AF
:1024900012D52000FFF7D4FC0EE051B200291ADA61
:1024A0005906F2D4190701D529001DE0990708D56E
:1024B00029002000FFF7A6FD01361434092EBAD1F9
:1024C0005AE707210A40012AF6D100215A070BD406
:1024D000DB06F1D5D0E7202019000140034201D0EE
:1024E0000021D6E7580703D52000FFF701FDE3E7F9
:1024F0002B4204D029002000FFF736FEDCE707213D
:102500000A40012AD8D11A07E2D5CDE70050004190
:10251000F007002001020000B8080020FF50004131
:102520000408002007510041012310B5264CA27871
:102530001A42FCD10323A2781A42FCD1227801234B
:1025400092073DD4A2781A42FCD12278134323701B
:102550000123A2781A42FCD11C4B1D4A1A605A6012
:102560009A60DA601A61FFF733FD1F20194B1A6871
:10257000530B910C920103400140520F834200D152
:1025800005231F2900D10239072A00D1023A9B01F5
:102590000B431203134323850323E2781A43E270AB
:1025A0000C22E1780A43E270A278100018401A4227
:1025B000FAD104232370084B63620123238110BDE9
:1025C00011204042FBE7C04600500041F0070020C8
:1025D0007F1D000024608000B808002003220E4BFD
:1025E0009978114214D199781142FCD102221978BC
:1025F000C8B2114205D10321024398780842FCD1A8
:102600001A7080210020054A1160054A1A8370471C
:1026100011204042FBE7C0460050004100E100E0CD
:102620008D0200000121024A13898B4313817047F8
:102630000050004180231843014B98727047C046F8
:1026400000500041F7B50F24044000910600C10975
:1026500047B220000192FFF7A7FB0321009B050072
:102660000B400093022C44D8837CFF2B44D1009B69
:10267000002B10D1F943C9B22000C909FFF794FB20
:10268000837CFF2B38D1F33B63431E4A9B58002BBE
:1026900034D113202EE0002F14DA0C226243194BA0
:1026A0009B185A68002A19D10C236343154CE4186F
:1026B000636800200099EB60019B01312B82E97473
:1026C000AE74FEBD0C2363430E4A9B58002B0BD007
:1026D0000C2262430B4B9B181B8900E05B89019A1B
:1026E0009A42D6DC002FDFDB0C235C43054BE3581A
:1026F000DFE712204042E4E71420FBE7002FE7DA8F
:10270000CBE7C04648490000F7B50F250400054057
:10271000022D1AD8C70943B2390028000193FFF7E8
:1027200043FB837C0600FF2B0FD003223900FFF709
:10273000AFFB0722F37C1340012B07D100220C4B87
:1027400008346401E254FF237382F7BD63B2002BA7
:1027500007DA7022074B6D01ED186B7893436B70AD
:10276000F1E7044B6401E418637893436370EAE78C
:1027700000500041FF500041F7B50F240440C1094B
:1027800045B22000FFF710FB454B6101CE1872786F
:102790000700D2B2022C00D97DE0837C0193FF2B8D
:1027A00000D178E03F4B5C18C37C0721180008403B
:1027B00001283BD177231100194000911A4200D023
:1027C0006CE0663B73703D8A2800FFF7A5FDE023AF
:1027D000354ADB0500071840AB0313400343636031
:1027E000402180230F22AD04AD0C28436061B171FC
:1027F0007371009B2B48A372A376019BAC0313401B
:10280000FA685B011A50C0184268284D15402543EC
:1028100045604268920B92034260214A00989B18DF
:10282000B0225A71A03A99719A72FEBD002D19DA40
:10283000702115000D400A4230D15B075B0E134337
:1028400073703F8A3800FFF767FDE0230007DB0560
:1028500018408023BF04BF0C384360617371A576B4
:102860002800E2E715000D400A4217D15B075B0F15
:10287000134373703F8A3800FFF74EFD0A4ABB03CB
:102880001340E0220007D205104003436360402359
:10289000B371A572E4E712204042C6E71420FBE7BB
:1028A000FF500041B808002000C0FF0FFF3F00F0BC
:1028B000F8B507000F26C40937400D003800210085
:1028C000FFF772FA0200022F4AD8837C10203340AF
:1028D000A040012D10D1244D5901C0B249194871B1
:1028E0002021A14021485B01C9B21B18997208231D
:1028F000D17C0B43D37409E05B01002D29D11C4925
:102900005D181A495B18D979084201D100201CE0F2
:102910002021A140C0B25871C8B258721E7A31420B
:1029200004D00121A140C9B2187259710721D37C8A
:10293000194001290AD1FF35EC792F3120000840D8
:102940000C42E3D128398B43D374F8BD08218B4363
:10295000D0E7054A9B189B791840431E9841F4E73D
:1029600012204042F1E7C04600510041FF500041B3
:1029700000500041F8B50F231840114B44011B19BA
:102980000F0019685D68AD04AD0C022812D8002F45
:1029900010D00C4BE4186378112B0ED11026227A3C
:1029A0000020324205D00822380001F0A5FE2800A0
:1029B0002672F8BD12204042FBE71320FBE7C04619
:1029C000B8080020FF500041F0B50F25077A87B006
:1029D0007BB23D40FF093900060028000293FFF753
:1029E000E3F93A49038A04001A008B4201D05A1EC7
:1029F00092B271680A400192022D64D88020326838
:102A0000800582420DD3324D8818A84209D8032090
:102A100015000540024204D1029A002A0EDB9942B9
:102A200006D2E3680125002B08D11320404217E0AD
:102A3000019B002B16D0E368002B44D0E37C0220DE
:102A40001B070DD405A8FEF70FFFE27C4023110001
:102A5000194003911A4207D005A8FEF70CFF012088
:102A600007B0F0BD019DE9E71343E37405A8FEF745
:102A700002FF7F213368FA0123607368039F63605C
:102A8000039BA360E37C0B40134369011D002023DB
:102A90009D430D43E574737A002B02D0019F7B4266
:102AA0005F411022E37C3F0193431F43029B0021BF
:102AB0002000E774002B03DAFFF7A4FA0020CFE729
:102AC000FFF752FBFAE71220B0E7C046FF03000011
:102AD000FF7F0020002900D10549012802D1054BC4
:102AE000596070470028FCD1024B1960F9E7C046D5
:102AF0007F1D0000F0070020002900D107490028B1
:102B000002D1074B99607047012802D1044BD9606C
:102B1000F9E70228F7D1024B1961F4E77F1D0000A5
:102B2000F007002010B5884201D3002010BD0378C3
:102B3000012BFAD944789442F8D0C018F3E78842C0
:102B400001D3002070470378012BFAD94278042A78
:102B5000F7D0052AF6D0C018F1E770B515000222AB
:102B60000C00FFF7DFFF00280FD170BD0378012BA9
:102B70000DD94378022B0AD14379AB42F5D0C27804
:102B8000837812029B189BB2C018A042EED300209B
:102B9000EBE770B50C0016000025A04201D3002021
:102BA00070BD03222100FFF7BDFF0028F8D0037895
:102BB000012BF4D9B542F3D0C0180135EDE7FFFF82
:102BC000032000220C4B01381A605A609A60DA60C8
:102BD00010330028F7D12022084B59690A435A6163
:102BE0001022D9690A43DA61054B064A5A63064A3C
:102BF0009A63064A1A80704780090020000400404A
:102C0000004800415009002020090020020F000068
:102C1000F0B585B00D0014000390FDF7B3FA1A4A21
:102C2000019013780226DBB2029300231370174B36
:102C30001978B143197019783142FCD1012119700A
:102C40001F783E000E400F42FAD1114F11486C43DD
:102C50007864114F11483880A8B278801048FF601E
:102C6000786003980419BC600E4C21600E4C2170F2
:102C700002211C7821431970029B13700198FDF703
:102C800085FA300005B0F0BD3F48004140480041A2
:102C90000048004120018000500900200108000088
:102CA00028080042800900204D480041F7B5174B25
:102CB000174C184D236000232B60FDF763FA164A6A
:102CC000164F1178CBB20193022313703E789E43C6
:102CD0003E703E78B44661461E401942F9D140210B
:102CE0000F4F104BFE6259640F4B10490435198485
:102CF000012104345984DE629D625C62019B396269
:102D00001370FDF743FA3000FEBDC046D204000048
:102D1000B4090020B00900203F480041404800416C
:102D2000800900200048004150090020010E0000E9
:102D300070B5FDF727FA0A4B022219001D003F313A
:102D40000C7840350A702E78E4B232432A7004229F
:102D50001D692A431A610C70FDF718FA002070BD36
:102D600000480041F0B587B00C0004920593039031
:102D7000FDF708FA1F4F02903B781F4ADBB2019320
:102D800001233B701178DB189943117011780D0005
:102D90001D401942FAD11949194E1A48CD61706483
:102DA000194E1A483082A0B270821948F561B0619C
:102DB00004986043040003980419746101240326F5
:102DC0000C61144C2670C1260598B6004861124962
:102DD00012488C5904408C5140240C6011780B43EC
:102DE0001370019B3B700298FDF7D0F9280007B0E3
:102DF000F0BDC0463F4800414048004180090020E6
:102E00000048004100028000500900200114000029
:102E1000280800424D48004100E100E0FFFF00FFAC
:102E200070B5FDF7AFF90121094B0A4C1A781970FA
:102E3000257849188D43D2B2257025782E000E4092
:102E40000D42FAD10449CE611A70FDF79FF970BDA9
:102E50003F4800414048004180090020014B58880C
:102E600080B2704720090020F0B5002685B0039697
:102E7000FDF788F9184B01901A8C0F23174D13405A
:102E80002A781749D2B200922B700A780227D2B260
:102E90000392039A012094466446124A1B013C4265
:102EA00003D0D0180F70C66030000126039F374250
:102EB00004D000200E70D118C8603000D3185A68B2
:102EC000002A01D099689047009B2B700198FDF76C
:102ED0005DF905B0F0BDC046004800413F480041E3
:102EE0004E480041800900201E2210B51F494B6842
:102EF00093431C3A13434B6083211D4B89009982F5
:102F0000998A0A439A82DA689207FCD50221194A03
:102F1000FF319160184951605178C909FCD1822173
:102F2000C9015180D968C906FCD502219984D968A4
:102F3000C906FCD51149D962D968C906FCD5104922
:102F4000104C0868996A800E800221400143996202
:102F5000D968C906FCD5988C0B49014399840B4B61
:102F600053605078C009FCD110BDC04600400041FC
:102F700000080040000C004001050300B905FF7D7A
:102F800024608000FF03FFFF0408000000070B001F
:102F900020222D4B70B5D96906200A43DA61402200
:102FA00059690A435A61012228490B7813430B706F
:102FB0000F21274B1C788C43204318702548047838
:102FC000224302701A78114060220A431A70224A82
:102FD000224B538053785BB2002BFBDB0123204A4A
:102FE00011780B4313709378DB07FCD41F201D4925
:102FF0000B685B0B0340834200D10523148D1A4DEF
:1030000003409B012C40234313850B689B0C03401A
:103010001F2B00D1023B1F24108D2340A0430343EC
:10302000072013850B68DB0D0340834200D1032387
:10303000118D03400D481B0301400B431385FEF720
:10304000FFFC002070BDC046000400405844004111
:103050003C44004159440041000C0040064000003F
:1030600000500041246080003FF8FFFFFF8FFFFF0A
:1030700010B500F005FB1430FDF7F2FC10BDFFFFAA
:10308000F7B507000E000092019300F0F9FA041E54
:1030900000D198E0002F00D195E0072E00D892E0F3
:1030A000009B002B00D18EE0019B072B00D88AE00B
:1030B000FDF768F8656C0123002D00D081E06364A2
:1030C000FDF764F8002D00D080E0009B01226363CF
:1030D000019BA662236301235B421100200025644B
:1030E000E762E363A3632561FDF776FC061E66D104
:1030F00020000122290065621430FDF76DFC061ED8
:103100005DD1102302220120314DAB60314B197883
:10311000114319701978014319700F232E490F7844
:103120009F430C3B3B4320270B702C4B6F60187860
:1031300002431A701A78944604226046904318702D
:103140000120AF611D7815431D701D78284318704C
:103150000F2308781840213303430B70204B196A62
:103160000A431A621F4A204B53805378DB09FCD173
:1031700001221E4B1A601A68D207FCD41C4A1A603E
:10318000C82292025A60DA695207FCD41A22022538
:103190009A811A682A431A60DA692A42FCD1062207
:1031A0009A75144BFB32FF32DA67A16A0122E06A9A
:1031B000FFF72EFDFCF7E6FF6564FCF7E7FF300044
:1031C000FEBD1D007CE705267642F8E70826FBE7F2
:1031D0000044004144440041324400414544004120
:1031E00000040040000C00401440000000080042B1
:1031F0008420104004E100E070B505000E0000F0EE
:103200003FFA041E1BD0002D19D0002E17D0436C9E
:10321000022B18D101220D4B31002800FFF7A2FD2F
:103220002000FA211430C900FDF75EFC0400FFF70E
:10323000F7FD4022064BDA67002C02D0FEE705249A
:103240006442200070BD0824FAE7C04671300000D7
:1032500004E100E0F8B506000C0000F011FA0500EA
:10326000002E21D0436C022B1ED1002C1CDD01212D
:103270004942FDF739FC2B6B2700A34200D21F0007
:103280000023686B9F420BD13900FFF7B5FFE41BA9
:10329000F619002CEFDC2800FDF7E2FB0020F8BD5A
:1032A000F25CC2540133ECE708204042F7E710B566
:1032B000040001F017FB01002000FFF7CBFF10BD59
:1032C00073B5050000F0DCF9436C01AE0400357005
:1032D000022B0AD101214942FDF706FC01213000F1
:1032E000FFF78AFF2000FDF7BBFB73BDF7B50600B3
:1032F0000D0000F0C5F9041E42D0002E40D0002D74
:103300003ED0436C022B02D008256D4236E0C36BE1
:10331000876A8363AF4200D92F000025FFF79EFD27
:103320000190226C019BA16AD3188B4217D1002D0A
:1033300024D1E36B002B01D10425E6E7636C022B5B
:10334000E2D10120FDF714FEE36B013304D0A36B3F
:10335000013BA363002BEFD000231D00DEE7E16AF1
:10336000531C23648A5C6B1C7255226CA16A8A42CE
:1033700001D3002222649F42EFDC1D002800FEBD25
:103380000525C2E710B50248FDF76AFB002010BD15
:10339000080B0020F8B5150000240A4FAC4205D1F7
:1033A00038004021FDF774FF0020F8BDFCF7EAFE6D
:1033B0000600395D0448FEF7CDFC3000FCF7E6FE60
:1033C0000134EAE7B8090020780A002013B5012487
:1033D00001AB188004420FD008490020FDF77CFFA4
:1033E00007492000FDF778FF00210648FDF762FF3E
:1033F00040210548FDF74CFF002016BD9533000025
:1034000085330000F8090020B80900200048704703
:10341000B809002010B5802216491748FEF77AFC3B
:10342000041E0CD1012215481100FDF7D5FA041E27
:1034300005D1012212481100FDF7CEFA0400FFF772
:10344000A7FD002C0FD10F48FEF7BAF9041E0AD1D0
:10345000FDF700FF041E06D10B48FEF7D9F9041E44
:1034600001D1FEF7EDF9C0230021084A5B002000DE
:10347000D15010BD880A0020780A0020080B0020D7
:103480001C0B0020380A00200C000020B809002086
:1034900070B5C024074D64002B59002B09D1FDF7EE
:1034A0003BFF002805D003200349FDF715FF01234A
:1034B0002B5170BDB8090020CD330000F0B585B0A8
:1034C0000290019100284FD000294DDDC023274CE8
:1034D0005B00E358012B02D0082464422AE0BE2698
:1034E00023007600A259FC33DA67FCF74BFE204F2D
:1034F00005003800FEF73FFC03902800FCF746FE6D
:10350000039D019B9D4200DD1D00002D15DD002463
:10351000FCF738FE029B060019193800FEF709FC7B
:1035200001903000FCF732FE019B002B02D10134E8
:10353000A542EDD1200005B0F0BDA359002B11D05C
:10354000C0235B00E0580128C6D1FDF711FDA35947
:10355000013301D10024EDE7FC34E36F013BE36765
:10356000002BF7D10424B8E70524B6E7B8090020FA
:10357000780A0020C023F7B5194A5B00D3580D0024
:103580000190012B29D1002927DD0121154849424D
:10359000FDF7AAFA2F00402D00DD4027124E002132
:1035A0003000FDF7A1FA041E12D13000FDF758FAE1
:1035B00039000198FDF77EFE64213000FDF794FA92
:1035C000041E05D1019BED1BDB190193002DE1DCED
:1035D0000448FDF745FA2000FEBD01246442FAE7E5
:1035E000B80900201C0B0020080B002010B5041E99
:1035F00006D001F077F901002000FFF7BBFF10BDF6
:1036000001204042FBE7FFFF70B5012600240225A0
:10361000764231000948FDF767FA0028F9DBFDF72B
:1036200099FBFFF785FB064B01346343EB41054AE9
:103630009342EED8FFF72CFFEBE7C04614060020BC
:10364000CDCCCCCCCCCCCC0C13B501246442220024
:10365000084801A9FDF798F80028F8DB019B012B29
:1036600003D1054800F08AFCF1E70448FFF71FFE8C
:10367000EDE7C046380E0020E00B00206C4900004A
:10368000004870478C0D0020002230B5294B85B0D2
:103690001A60FFF70BFBE1235B02274A009320210E
:1036A00040232648FFF7ECFC021E3FD1FFF7B2FE95
:1036B000021E3BD1802322482249C2630293019219
:1036C0000093214BFDF7A0FB021E2FD10124C02542
:1036D0001E481F4BC2631F4901920294033200959A
:1036E000FDF792FB021E21D180231B485B00C263C1
:1036F0001A49019200930632194B0294FDF784FB9C
:10370000021E13D11748184BC26318490192029444
:1037100008320095FDF778FB021E07D114484023BC
:10372000C2620821134AFCF7A3FF0200100005B093
:1037300030BDC04634030020F80D0020D80D002015
:10374000C819002009360000241C0020681600203B
:10375000C4190020B93700000812002049360000C3
:1037600064160020A80E002004120020A5390000D5
:10377000380E0020680E002010B504000A2904DC71
:1037800008290ADD0120404206E00D2905D1036821
:10379000C31800201871206010BD23685A1CE3185C
:1037A000226019711F2AEDDD20220021201D00F06A
:1037B000F5FF00232360E5E770B5A4B0FFF726FE10
:1037C00000231A4AD363BE22520083504021684628
:1037D000FFF78CFD041E09DD00256B461448595D7A
:1037E000013500F0A1FAAC42F0D0F6E7402168467E
:1037F000FFF764FE051E15DD00246B460D4E195DB6
:103800003000FFF7B9FF002808D150210A4A331DC4
:1038100010A800F09BFD10A8FFF7E8FE0134A542B8
:10382000EBD1D3E70120FDF7A3FBCFE78C0D002000
:10383000E00B00203C0B00207B490000044A10688C
:1038400043034340580C43405801584010607047B0
:10385000B800002070B5FFF747FB1124FFF7B0F95F
:10386000013CFFF7EBFF002CFAD1802002231B491B
:1038700000051B4D88602A781A432A700822886147
:1038800018490A601849087803430B70174B184809
:103890001A6000F0D1F948222100164800F07EFF9E
:1038A00024222100144800F079FFC021134A144B50
:1038B00014485360036A09061B021B0A0B43036288
:1038C000072394602100136020002200FCF7F2FC23
:1038D000002800D0FEE7200070BDC0460044004133
:1038E0005B44004188440041C34400419844004186
:1038F000E00B00208C0D00203C0B002010E000E0CD
:103900007FBB000000ED00E0F0B505000E001700E1
:103910008BB000283AD0502938DD002A36DBFFF77B
:103920008DFF0F2100F0BEFE0A235B1A08938C2343
:103930009B00CB1809930B000F3B0793CB0702D5D5
:103940000F235B1A0793FFF779FF322100F0AAFEDD
:103950000C00FFF773FFC82100F0A4FE0D4B2800F8
:10396000C9180D4B0591E31804930C4B3100E41872
:10397000079B0B4A0293099B03940193089B0093B6
:103980003B0000F0E3FC00200BB0F0BD0120404202
:10399000FAE7C046E835000079020000A0230000E5
:1039A00085490000F8B50024802725003F05032045
:1039B0000134FDF7DDFA0135842C0BD1094B5F6131
:1039C000094E2A0080213000FFF79EFF3000FFF7EC
:1039D0000DFEECE784235B009C42F1D1014B0024F7
:1039E0009F61EDE700440041600B002010B50248E4
:1039F000FFF75DFC002010BD9C49000010B5024897
:103A0000FFF755FC002010BDB149000010B5024879
:103A1000FFF74DFC002010BDBE49000010B5024864
:103A2000FFF745FC002010BDD049000010B502484A
:103A3000FFF73DFC002010BDE2490000F0B5002773
:103A400085B005000C000E000292B84204DA2D2366
:103A50004E1C0B704542013728000A2100F022FE5F
:103A6000280003910A21019500F036FD0399019A7F
:103A7000303133003170050001360137092A05DD88
:103A8000029A9742E8D30022227002E0029A9742FB
:103A9000F9D2002232701A782178013B59702270D5
:103AA0000134A342F7D805B0F0BDFFFFF0B52D48B3
:103AB0008DB0FFF7FCFB2C4E7468B44202D100209D
:103AC0000DB0F0BD6368183C0193236A1D1D636A45
:103AD0009800264B2D1A2A689A4201D10435FAE73C
:103AE000234906A800F0F6FE1022206B02A9FFF77A
:103AF000A5FF02A906A800F0C7FE1E4F06A83900C0
:103B000000F0C2FE06A8FFF7D2FB1B4906A800F092
:103B1000E1FE236A1022181D401B800802A9FFF74E
:103B20008DFF02A906A800F0AFFE390006A800F03C
:103B3000ABFE06A8FFF7BBFB104906A800F0CAFEC3
:103B40001022606A02A9FFF779FF02A906A800F017
:103B50009BFE0B4906A800F097FE06A8FFF7A7FBFF
:103B6000019CAAE7F4490000C0000020EFBEADDED2
:103B7000364A00003D4A0000404A0000484A000022
:103B8000BB4A0000F7B5040022008C460020132732
:103B90008832136819000C318900095900290DD1A8
:103BA000013001396546012D0DD10133132B08DC9D
:103BB0001360002939D01328EBDDF7BD0E0000217A
:103BC000F0E70023F4E7013BF2D51760F1E70025A9
:103BD000E36820225B18012D00D0082201311A7001
:103BE0005F2903DDE068E36A984700210135032D72
:103BF000EED1019B01330193019B3A689342E6DBCE
:103C0000002902D0E068E36A98473100E06804C9FF
:103C100000F072FD00233168E26853543368E068B5
:103C200063603B60636A9847C7E7270063688C3727
:103C3000002BEADD0191DFE7D62210B50400002158
:103C4000520000F0ABFDC02213491448FCF7ACFC55
:103C50002300200060229033A361631CFF332361A3
:103C60000F4BA0301B68A260E3610E4B0021236262
:103C70000D4BE06063620D4BA3620D4BE36200F0FD
:103C80008DFD23004022FC339A6600226D34FF3400
:103C90005C66DA6610BDC0464C1C0020281C002063
:103CA000A04A0000704A0000AF320000C13200009C
:103CB00055320000002310B51A0001210248FCF71C
:103CC000F3FD002010BDC046380E0020436A10B539
:103CD000002B03D008009847002010BD012040426F
:103CE000FBE7FFFF436A10B50400002B08D0002952
:103CF00001D005489847636A04489847002010BDE2
:103D000001204042FBE7C046BB4A0000A44A000035
:103D1000836A10B5002B03D008009847002010BD1F
:103D200001204042FBE7FFFF0368F7B50400002BCA
:103D300000D0E4E043680D2949D08068984246DD10
:103D40005B2930D012D8082912D01B2924D06F4DFE
:103D50002A68002A2CD15A1C904223DD0800203802
:103D60005F281FD86260E268D1540EE07F29EED14F
:103D7000002B17DD013B082163602000FFF7C8FF1F
:103D800020212000FFF7C4FF08212000FFF7C0FF1B
:103D9000230062688C3304E05C4B1A68002A01D16E
:103DA00001321A60F7BD594B1A68012AFAD1F7E7B8
:103DB000022A05D1412906D100212000FFF7E2FEA9
:103DC00000232B60EEE74229FAD14139F5E70025BF
:103DD000E268D554E168206900F07CFDE36866681C
:103DE00065601D70636A4A48984701232360AE42AC
:103DF0007BDD2769380000F075FD0600A84274D00D
:103E0000230030331D0000935033019328680028AD
:103E100009D003689E4206D132003900043000F018
:103E200047FC002861D0019B04359D42EED1331D33
:103E3000190038480193FCF7D7FB051E38D1220042
:103E4000211D0832D36FC96F8B424ED09900611883
:103E50000133096B132B4CDCD36700290CD00023F2
:103E600000989A008258914245D100220C339B0061
:103E70001A512848FCF7D8FB002D05D10199254897
:103E8000FCF7B2FB051EDAD028003200390040C032
:103E900000F032FC23000833DA6F211D002A02D122
:103EA000CB6F132B21D0CB6F013A934213D11CE07F
:103EB00028003200390040C000F01EFC2300083307
:103EC000DA6F211D002A02D1CB6F132BB7D0CB6F35
:103ED000013A9342B3D09A00A21801331563CB671D
:103EE000132B02DD0022231DDA672000FFF7E2FE1C
:103EF00058E70023B0E70133142BB1D1B9E7032908
:103F000000D04FE7012343614CE7C0460C1D002061
:103F1000BB4A0000281C002010B50400FFF7E2FE99
:103F2000FCF730F900232360FCF730F910BD0023C3
:103F3000F0B502000400202618000B604B608B6077
:103F4000CB601578092D15D02F00B7430CD1012B6C
:103F500006D100231370830001305C5003280CDC71
:103F6000002D0AD0002303E0002B01D114000133FF
:103F70000132E6E7012BECD0FAE7F0BDF8B504001A
:103F800000211022806900F009FCA1692069FFF777
:103F9000CEFF00281EDD0025E769AF4210DD236A51
:103FA000EE009E19A3693168186800F04BFC0028E8
:103FB00017D120007368984701212000FFF7ACFF5C
:103FC000E3690020AB420BD107492000FFF77EFEDA
:103FD000012100E000212000FFF79EFF0120404268
:103FE000F8BD0135D9E7C046AB4A0000FEE7FFFF48
:103FF000022203201B4B10B55A621B4BD978814318
:104000000A430C21DA70DA7818488A431100082232
:104010000A43DA702A22164B9A738023154A516894
:104020000B435360144BC11E0022994203D8033343
:104030001A1A92089200114900F05EFB1048114BC9
:10404000C11E0022994203D803331A1A9208920023
:10405000002100F0A3FB0C4A0C4B9A60FFF7FAFB1F
:10406000FEE7C046FC700041005000410000002007
:104070000048004100400041BC000020C44B00004B
:10408000C0000020101D00200000000000ED00E036
:10409000036810B50400002B07DB8069636998474B
:1040A000002803DB23680133236010BD2060FCE798
:1040B000F7B58368026904009D1AC3680191ED1A7F
:1040C0004368DA0705D55B0702D52D21FFF7E0FF2E
:1040D000013D63689B0720D4052362682D211340AE
:1040E000012B06D02369019E013B2361002B1CDBC1
:1040F00030212000FFF7CCFFF4E7636830213B421A
:1041000000D110392000FFF7C3FF013EF5D5EB4386
:10411000DB176A1E1D40551BDEE72E000427F4E75F
:1041200031782000FFF7B4FF0136E368013BE3601C
:10413000002BF5DA013D00D5F7BD20212000FFF767
:10414000A7FFF7E700280ED04368002B0BDD0368BC
:104150005A1C026019700023026813704368013B07
:1041600043600120704701204042FBE7F0B51E008C
:10417000002397B00693744B013905910B93117886
:1041800004AB04900C93551C002902D1069817B07B
:10419000F0BD6C1C252900D0CBE0002329780893C2
:1041A0000A932D291AD002330793302907D1079B90
:1041B000217801930423019A0134134307932A2998
:1041C00010D00020220003000A270D00303D14000B
:1041D000092D20D900280AD0089308E069780793B0
:1041E000AC1CE2E708CE21781BB2089301342E29DB
:1041F00064D121782A2915D000250A22631C0800E1
:104200003038C7B21C00092F10D85543451919780A
:104210002DB20133F3E77B435B1801201178303B6B
:104220000132D2E720CE61782DB202346C2901D15F
:1042300021780134642900D180E0782906D05829FA
:104240003FD10820079B0193034307931027331D99
:1042500003933668642907D1002E05DA0122079BF3
:1042600076420193134307930822079B1A400123C8
:10427000029201933900300000F02AF90B0030332C
:10428000392B04D9029A2733002A00D0203B019908
:1042900016AA521A13700B000133B74246D909917E
:1042A000002D03DBA94201DA6D1A0A95019A16ABBB
:1042B000991A06A8FFF7FCFE039E33E001256D4224
:1042C000B4E775293AD06F293AD062293AD06329E8
:1042D0000ED1079B0DA901930423019A9A4308CE9E
:1042E00007920B700123099306A8FFF7E1FE19E07E
:1042F000732912D1079B02CE01930423019A9A439A
:10430000002307920993099BCA5C002AECD0002D78
:1043100001DB9D42E8DD0133F4E7002904D006A863
:10432000FFF7B6FE2178013425002DE70600019342
:10433000A0E706A8FFF7ACFE2978F5E70A2786E78D
:10434000082784E7022782E7454100000CB407B53F
:1043500004AB04CB0193FFF709FF03B008BC02B024
:104360001847704710B5FCF71BF8FBF707FF10BDA7
:1043700010B5FEF779FDFBF701FF10BD10B5FDF795
:10438000E7FFFBF7FBFE10BD02B471464908490088
:10439000095649008E4402BC7047C04602B47146BB
:1043A00049084900095C49008E4402BC7047C04678
:1043B00003B47146490840004900095E49008E4433
:1043C00003BC7047002243088B4274D303098B421D
:1043D0005FD3030A8B4244D3030B8B4228D3030CD5
:1043E0008B420DD3FF22090212BA030C8B4202D377
:1043F0001212090265D0030B8B4219D300E0090A9F
:10440000C30B8B4201D3CB03C01A5241830B8B42A7
:1044100001D38B03C01A5241430B8B4201D34B0390
:10442000C01A5241030B8B4201D30B03C01A5241F5
:10443000C30A8B4201D3CB02C01A5241830A8B427A
:1044400001D38B02C01A5241430A8B4201D34B0263
:10445000C01A5241030A8B4201D30B02C01A5241C7
:10446000CDD2C3098B4201D3CB01C01A524183097B
:104470008B4201D38B01C01A524143098B4201D3B5
:104480004B01C01A524103098B4201D30B01C01AE0
:104490005241C3088B4201D3CB00C01A524183085A
:1044A0008B4201D38B00C01A524143088B4201D387
:1044B0004B00C01A5241411A00D2014652411046E7
:1044C0007047FFE701B5002000F0F0F802BDC046DC
:1044D0000029F7D076E7704703460B437FD40022CC
:1044E00043088B4274D303098B425FD3030A8B4288
:1044F00044D3030B8B4228D3030C8B420DD3FF22F2
:10450000090212BA030C8B4202D31212090265D0BF
:10451000030B8B4219D300E0090AC30B8B4201D372
:10452000CB03C01A5241830B8B4201D38B03C01AB9
:104530005241430B8B4201D34B03C01A5241030B30
:104540008B4201D30B03C01A5241C30A8B4201D3E1
:10455000CB02C01A5241830A8B4201D38B02C01A8C
:104560005241430A8B4201D34B02C01A5241030A03
:104570008B4201D30B02C01A5241CDD2C3098B42E8
:1045800001D3CB01C01A524183098B4201D38B0165
:10459000C01A524143098B4201D34B01C01A524108
:1045A00003098B4201D30B01C01A5241C3088B424D
:1045B00001D3CB00C01A524183088B4201D38B0038
:1045C000C01A524143088B4201D34B00C01A5241DA
:1045D000411A00D201465241104670475DE0CA0FB1
:1045E00000D04942031000D34042534000229C4671
:1045F00003098B422DD3030A8B4212D3FC2289017B
:1046000012BA030A8B420CD3890192118B4208D350
:10461000890192118B4204D389013AD0921100E0B2
:104620008909C3098B4201D3CB01C01A52418309C6
:104630008B4201D38B01C01A524143098B4201D3F3
:104640004B01C01A524103098B4201D30B01C01A1E
:104650005241C3088B4201D3CB00C01A5241830898
:104660008B4201D38B00C01A5241D9D243088B42EE
:1046700001D34B00C01A5241411A00D20146634691
:1046800052415B10104601D34042002B00D54942F5
:10469000704763465B1000D3404201B5002000F034
:1046A00005F802BD0029F8D016E770477047C046EC
:1046B00030B5032A0CD903000B439B0719D10368BB
:1046C0000C68A34215D1043A04300431032AF6D809
:1046D000551E002A0BD0002303E05A1C9D4206D031
:1046E0001300C25CCC5CA242F7D0101B00E000209B
:1046F00030BD551EEFE7C046F0B5C64600B50F2ADF
:1047000041D903270D003E0005430C0003002E4055
:104710002F423DD11500103D2D09A8462D01AC4674
:10472000844427681D001F6067685F60A7689F60FA
:10473000E7681034DF6010336545F2D145460F233A
:104740000C2401352D01491913404519144222D07A
:104750008C59AC5104369C1B032CF9D8043B9B08A4
:1047600001339B00ED18C91803231A40561E002A76
:1047700006D00023CC5C1A00EC5401339642F9D1E8
:1047800080BCB846F0BD0500561E002AF1D1F7E7FF
:104790000500561EEDE71A00F6E7C046F0B5050025
:1047A000830749D0541E002A45D003000326CAB20D
:1047B00002E00135013C3ED301332A703342F8D187
:1047C000032C30D9FF220A40150215432A04154351
:1047D0000F2C34D92700103F3F093E01B4461E007C
:1047E0001A0010366644156055609560D560103229
:1047F000B242F8D101373F01DB190F270C222740C5
:1048000022403C00002A0ED03E1FB608B400A44649
:104810001A001C1D644420C2A242FCD103240136AC
:10482000B6009B193C40002C05D0C9B21C19197068
:1048300001339C42FBD1F0BD03001400C0E7270008
:10484000E2E7C046F0B50700002403250D4E3B5DAE
:10485000F25C2A40012A00D12033085D325C2A40F4
:10486000012A08D01A1A834203D1002802D0013449
:10487000EDE71000F0BD02002032981A9342F9D102
:104880000134E4E7C14A000070B50400830716D183
:1048900002680E4B0E4DD31893432B420FD1426842
:1048A0000A4B0430D31893432B4208D14268074B7C
:1048B0000430D31893432B42F1D000E00130037849
:1048C000002BFBD100F006F8200070BDFFFEFEFEBD
:1048D0008080808003000A7801311A700133002A39
:1048E000F9D1704710B583070AD00300032102E015
:1048F00001330B4205D01A78002AF9D1181A10BDDD
:10490000030019680C4A0D4C8A188A4322420FD1C1
:104910005968094A04338A188A43224208D15968DF
:10492000054A04338A188A432242F1D000E0013359
:104930001A78002AFBD1E1E7FFFEFEFE808080802E
:10494000ED0101010102F0FF30070020000000002E
:104950004000000070070020000000004000000040
:10496000B00700200000000040000000556E6B6E94
:104970006F776E206D73672E0D0A00476F743A20B3
:1049800025730D0A002564202564202564202564F4
:104990002025642025642025640D0A00546869736D
:1049A00020697320612050535720636D642E0D0AD7
:1049B00000566572202D20332E302E0D0A005468CB
:1049C0006973206973206120434D44312E0D0A0024
:1049D00054686973206973206120434D44322E0D61
:1049E0000A0054686973206973206120434D443381
:1049F0002E0D0A0054686520737461636B20225584
:104A0000736167652220616E64202253697A652292
:104A10002076616C7565732061726520696E207403
:104A200068652027696E7427286E6F742062797418
:104A30006573290D0A005461736B3A200020200031
:104A400055736167653A200053697A653A200070B2
:104A500073770076657200636D643100636D643254
:104A600000636D64330064756D705F73746B00FF79
:104A70004F4A0000ED390000534A0000FD390000A4
:104A8000574A00000D3A00005C4A00001D3A000041
:104A9000614A00002D3A0000664A0000AD3A00006D
:104AA000060000005348454C4C3E000D0A57726FFB
:104AB0006E6720636F6D6D616E64210D0A00FFFFEC
:104AC00000202020202020202020282828282820DE
:104AD00020202020202020202020202020202020D6
:104AE000208810101010101010101010101010103E
:104AF000100404040404040404040410101010102E
:104B000010104141414141410101010101010101F7
:104B10000101010101010101010101011010101049
:104B200010104242424242420202020202020202C9
:104B3000020202020202020202020202101010101D
:104B40002000000000000000000000000000000045
:104B50000000000000000000000000000000000055
:104B60000000000000000000000000000000000045
:104B70000000000000000000000000000000000035
:104B80000000000000000000000000000000000025
:104B90000000000000000000000000000000000015
:104BA0000000000000000000000000000000000005
:104BB00000000000000000000000000000000000F5
:044BC00000FFFFFFF4
:104BC400C80200200000000069100000140000204A
:104BD400B60000201201000202000040EB0304248E
:104BE4000001000000010A0600020200004001006A
:104BF400090243000201008032090400000102029C
:104C0400000005240001100524010100042402020F
:104C140005240600010705820340000A0904010077
:104C2400020A000000070501024000000705810296
:104C3400400000090743000201008032090400001B
:104C440001020200000524000110052401010004F2
:104C540024020205240600010705820340000A0914
:104C6400040100020A000000070501020002000717
:0C4C7400058102000200FFFF07000000A5
:0400000300003FF1C9
:00000001FF
